:020000040000FA
:10000000201600207D01000085010000870100000E
:10001000890100008B0100008D01000055000000E7
:100020000000000000000000000000008F01000040
:100030009101000000000000930100009501000004
:10004000830D0000A7030000CD030000AB0C0000EF
:10005000B50C0000BF0C0000C90C0000A702000096
:100060009701000097010000970100009701000030
:100070009701000097010000970100009701000020
:100080009701000097010000970100009701000010
:100090009701000097010000970100009701000000
:1000A00097010000970100009701000097010000F0
:1000B00097010000970100009701000097010000E0
:1000C00000F002F800F03FF80AA090E8000C82442B
:1000D0008344AAF10107DA4501D100F034F8AFF208
:1000E000090EBAE80F0013F0010F18BFFB1A43F016
:1000F00001031847142B0000342B0000103A24BFD2
:1001000078C878C1FAD8520724BF30C830C144BF7C
:1001100004680C60704700000023002400250026BE
:10012000103A28BF78C1FBD8520728BF30C148BF5A
:100130000B607047692902F09D82002070471FB54F
:100140001FBD10B510BD02F09CFB1146FFF7F7FF75
:1001500000F064F802F0BAFB03B4FFF7F2FF03BC4F
:1001600002F0C2FB03480449086070470148024995
:100170000860704740787D010000002009488047F2
:1001800009480047FEE7FEE7FEE7FEE7FEE7FEE779
:10019000FEE7FEE7FEE7FEE704480549054A064B91
:1001A000704700006D010000C10000002006002023
:1001B00020160020201200202012002010B5044636
:1001C0002146024802F054F910BD00000000104022
:1001D00010B5044603E02078FFF7F0FF641C207898
:1001E0000028F8D110BD000070B504460D4609483E
:1001F000006820B129462046064A1268904700BF91
:10020000054800680028FBD170BD024908607047AE
:10021000704700000C000020080000208CB000BFD8
:1002200000BF00BF30A003C8CDE90A0130A103C957
:10023000CDE9080120223049684602F076FA00F044
:1002400073FD00BF4FF0FF302C49086000BF00F085
:1002500059F8012000F033F8022000F030F800F0E7
:1002600092F8002000F02BF800F086FD072000F047
:1002700031F8072021498039420951F82210012222
:100280008240114009B1012100E000210C4600BF6D
:10029000204600F0BFFB00F0DAFB03E0284600F048
:1002A00050FB0546FAE710B5072001218140134AAB
:1002B000430942F8231000BF00F00CF810BD00F015
:1002C0001F02012191404209920002F1E022C2F88E
:1002D0000011704700F01F0201219140084A4309B4
:1002E00042F82310704700000123456789ABCDEF2A
:1002F000FFFFFFFFFFFFFFFFF828000080E200E0A4
:1003000080E100E010B50021F74801F02AF804462A
:100310000CB1012010BD0121F44801F022F804467F
:100320000CB10120F6E70221F14801F01AF8044669
:100330000CB10120EEE76FF00F020121EA4800F056
:1003400055FD4FF0FF320221E74800F04FFDE94A2A
:100350000121E64800F04AFD4FF0FF320221E34858
:1003600000F044FD00220121E14800F03FFD0022A1
:100370000121DE4800F0F7FD00220121DA4800F0FB
:10038000F2FD0020C6E710B50221D84800F09FFE1C
:100390000221D54800F09BFED44800F02BFED24845
:1003A00000F028FE10BD08B50221CF4800F09CFDEA
:1003B00000900121CC48009A00F0D5FD0321CA48E5
:1003C00000F001FF012000F011FB08BD7CB5022107
:1003D000C64800F089FD002836D00221C34800F04D
:1003E00083FD01900121C14800F07EFD009001983D
:1003F00000F0010010B10724012516E0019800F07B
:10040000020010B1382408250FE0019800F0040024
:1004100018B14FF4E074402507E0019800F008009F
:1004200018B14FF460644FF40075009800EA0406B8
:10043000701900EA04060098A0433043009001219F
:10044000AA48009A00F08FFD0321A84800F0BBFEE7
:10045000022000F0CBFA7CBD10B5044622460121F3
:10046000A34800F080FD10BD08B502219E4800F0B1
:100470003BFD0090009A521C01219B4800F073FD47
:1004800008BD70B5054600242A460121964800F0B3
:100490006AFD00BF00E0641C642CFCDB002201212B
:1004A000914800F060FD002400E0641C642CFCDB3B
:1004B00070BD002000BF00E0401C7828FCDB7047C6
:1004C000002000BF00E0401C3C28FCDB70470020FF
:1004D00000BF00E0401C1428FCDB704710B5044648
:1004E0002078732874D16078732872D1A07873282B
:1004F0003FD1E07873281AD12079732806D17E483D
:1005000002F0F4F87C4935220A5419E220796C286B
:1005100006D1794802F0EAF8774934220A540FE20A
:10052000754802F0E3F8744968220A5408E2E0785A
:100530006C2817D12079732803D10420FFF7A1FF7D
:10054000FEE120796C2806D16B4802F0CFF86A49A9
:1005500033220A54F4E1684802F0C8F8664976226A
:100560000A54EDE1644802F0C1F8634973220A5469
:10057000E6E1A0786C2838D1E078732814D120798E
:10058000732803D10420FFF77CFFD9E120796C2880
:1005900003D10420FFF775FFD2E1574802F0A6F817
:1005A000554966220A54CBE1E0786C2816D12079AF
:1005B000732803D10420FFF764FFC1E120796C2880
:1005C00008D14D4802F092F84B4932220A54B7E163
:1005D000A2E011E00420FFF754FFB1E1464802F029
:1005E00085F8454975220A54AAE1434802F07EF88D
:1005F000414969220A54A3E160786C2873D1A0783C
:10060000732833D1E078732814D12079732803D16B
:100610000420FFF736FF93E120796C2803D10420F2
:10062000FFF72FFF8CE1344802F060F832496C226A
:100630000A5485E1E0786C2811D12079732803D120
:100640000420FFF71EFF7BE120796C2803D10420F2
:10065000FFF717FF74E10420FFF713FF70E126484E
:1006600002F044F8244972220A5469E1A0786C2807
:1006700044D1E078732814D12079732803D1042061
:10068000FFF7FFFE5CE120796C2803D10420FFF71F
:10069000F8FE55E1184802F029F8174970220A546B
:1006A0004EE1E0786C2817D12079732803D104201B
:1006B000FFF7E7FE44E120796C2806D10E4802F0EE
:1006C00015F80D496C220A543AE10B4802F00EF875
:1006D00009496A220A5433E1074802F007F806493B
:1006E00077220A542CE110E0D4000020E40000201E
:1006F000F400002000F0FFFF04010020C04801F0DA
:10070000F5FFBF4961220A541AE1BD4801F0EEFF2E
:10071000BB4965220A5413E120786C2872D16078B5
:1007200073287FD1A078732839D1E078732817D146
:100730002079732806D1B24801F0D8FFB04936229B
:100740000A54FDE020796C2803D10420FFF799FEBC
:10075000F6E0AB4801F0CAFFA94962220A54EFE073
:10076000E0786C2814D12079732803D10420FFF796
:1007700088FEE5E020796C2803D10420FFF781FE94
:10078000DEE09F4801F0B2FF9D4978220A54D7E08D
:100790009B4801F0ABFF9A4964220A54D0E0A0784C
:1007A0006C2838D1E078732814D12079732803D1CC
:1007B0000420FFF766FEC3E020796C2803D10420F3
:1007C000FFF75FFEBCE08E4801F090FF8C4963228A
:1007D0000A54B5E0E0786C2816D12079732803D14B
:1007E0000420FFF74EFEABE020796C2803D10420F3
:1007F000FFF747FEA4E0824801F078FF80497922A4
:100800000A549DE099E00DE07D4801F06FFF7C49BE
:100810006B220A5494E07A4801F068FF78496E220E
:100820000A548DE060786C2871D1A078732838D193
:10083000E078732816D12079732806D1704801F02A
:1008400055FF6F4937220A5405E020796C2802D100
:100850000420FFF716FE6A4801F048FF68497A2233
:100860000A546DE0E0786C2814D12079732803D104
:100870000420FFF706FE63E020796C2803D10420F2
:10088000FFF7FFFD5CE05E4801F030FF5C4971223C
:100890000A5455E05A4801F029FF594967220A5481
:1008A0004EE0A0786C283AD1E078732814D12079F2
:1008B000732806D1524801F019FF514938220A54D1
:1008C0003EE020796C2803D10420FFF7DAFD37E001
:1008D0000420FFF7D6FD33E0E0786C2818D12079AA
:1008E000732806D1464801F001FF454939220A54D0
:1008F00026E020796C2806D1414801F0F7FE4049F6
:1009000030220A541CE00420FFF7BBFD18E00DE084
:100910003B4801F0EBFE3A496F220A5410E0384898
:1009200001F0E4FE36496D220A5409E0344801F032
:10093000DDFE334974220A5402E00420FFF7A1FDD2
:1009400010BD70B50646002402212E4800F0CCFAF6
:100950000546B54248D0012D06D0022D15D0042DF4
:1009600024D0082D3CD133E001221146264800F066
:10097000FAFAFFF7ACFD00220121234800F0F3FA58
:10098000732022490855641C2DE0012211461E489F
:1009900000F0E9FAFFF794FD002201211A4800F067
:1009A000E2FA6C2019490855641C1CE0FFF781FD30
:1009B0001648FFF793FD002403E000201349085573
:1009C000641C124801F092FEA042F6D800240AE00E
:1009D000FFF76FFDFFF76DFD0948FFF7F9FB02E038
:1009E000FFF775FD00BF00BF284670BD00F01F0275
:1009F00001219140064A430942F823107047000044
:100A000004010020E4000020D40000201000002099
:100A100080E200E070B505460021B54801F01AFA01
:100A200004460CB1012070BDB14800F0E0FCB048B4
:100A300000F0D5FDAE49896901F11C00002100F0EC
:100A400054F90121AA4801F00EF80020EBE710B597
:100A5000A749896901F11C00002100F046F910BD89
:100A600070B5A349896901F1600000F03BF90546C2
:100A700045F004019E4A926902F1600000F035F9E8
:100A800006209C49087001230022994800F037FE97
:100A90000446052097490870FF2048700223964AB3
:100AA000934800F02CFE0446204670BD2DE9F04727
:100AB00007460D4616468E49896901F1600000F02F
:100AC00011F9804648F00401894A926902F16000F8
:100AD00000F00BF90DB1FC2D02D90120BDE8F08723
:100AE00006208449087001230022814800F007FE97
:100AF000814602207F490870300C4870300A8870A7
:100B0000CE70002405E017F8011B201D794A11540E
:100B1000641CAC42F7D32B1D00227649744800F0C8
:100B2000EEFD8146002400E0641C44F6206084420F
:100B3000FAD34846D2E72DE9F04707460D46164658
:100B40006B49896901F1600000F0CCF8804648F0FB
:100B50000401674A926902F1600000F0C6F80DB125
:100B6000FC2D02D90120BDE8F087032061490870FF
:100B7000300C4870300A8870CE70002404E00021E8
:100B8000201D5C4A1154641CAC42F8D32B1D5A4AF8
:100B90005849574800F0B3FD8146002405E0564906
:100BA000201D085C07F8010B641CAC42F7D34846D3
:100BB000D9E72DE9F04F93B0074688460020129000
:100BC0004B4890F82D402046E11704EB5171CD10B1
:100BD0002346424649A102A8009501F003FD02A860
:100BE000FFF7F6FA4249896901F1600000F07AF8EE
:100BF00083464BF004013E4A926902F1600000F026
:100C000074F84FF0000A17E03949896901F164006E
:100C100000F068F8064606F0080060B997F8009002
:100C20002F443349896901F16800494600F05DF8B5
:100C3000129828441290AA44C245E5D32C498969E8
:100C400001F17000002100F050F82949896901F193
:100C5000600000F047F820F4807B4BF00201244A4A
:100C6000926902F1600000F040F800BF20498969F4
:100C700001F1200000F036F8064606F004000028D6
:100C8000F4D01B49896901F1200000F02BF840F0F5
:100C9000040017490190896901F12000019900F0D1
:100CA00024F8129813B0BDE8F08F10B5032000F0BF
:100CB00010F810BD10B5042000F00BF810BD10B5F1
:100CC000052000F006F810BD10B5062000F001F870
:100CD00010BD00F01F02012191400F4A430942F864
:100CE000231070470146086870470246116070473C
:100CF0001801002074010020740200206C656E2031
:100D000025692C205769642025692C20696E63723F
:100D10002025690D0A00000080E200E01F4A1160F2
:100D200070471F4A1160704710B500211D4801F03F
:100D3000CAFB04460CB1012010BD1A4AAFF21D01D6
:100D4000104601F0BFFA174AAFF22F01104601F02A
:100D500087FA4FF480721449124801F0C3F9002059
:100D6000EAE70E490968114A1268881A18B10B4956
:100D700009680E4A1160704710B50A4801F047FB38
:100D800010BD10B5074801F0F5FA0020012181409F
:100D9000074A430942F8231000BF10BD1800002085
:100DA0001C00002074030020C0040020200000204C
:100DB00080E200E070B504460D4616461CB10020E6
:100DC0008A49086008E079218948FFF70DFA012077
:100DD00086490860002070BD2660A868A060E868A9
:100DE000E0604FF0113060600020F4E770B5044619
:100DF0000D4616461CB100207C49086007E09E2184
:100E00007B48FFF7F1F901207849086070BD606800
:100E1000B0F1113F03D100207449086007E09F2121
:100E20007348FFF7E1F9012070490860EEE7012DF2
:100E300004D0022D06D1E068012803D100206B49BF
:100E4000086007E0A0216A48FFF7CEF90120674952
:100E50000860DBE7691E042303EBC1012268501818
:100E6000314600F0BFF800BFD0E770B504460D462C
:100E70001CB100205D49086008E0BC215C48FFF718
:100E8000B3F9012059490860002070BD6068B0F1D5
:100E9000113F03D100205549086008E0BD215448A6
:100EA000FFF7A2F90120514908600020EDE7012D6C
:100EB00004D0022D06D1E068012803D100204B495F
:100EC000086008E0BE214A48FFF78EF90120474933
:100ED00008600020D9E7691E042303EBC1012268E2
:100EE000501801680846D0E770B504460D461CB19D
:100EF00000203E49086008E0D6213D48FFF774F91C
:100F000001203A490860002070BD6068B0F1113FCF
:100F100003D100203549086008E0D7213448FFF7A5
:100F200063F90120314908600020EDE7012D04D06C
:100F3000022D06D1E068012803D100202B4908606A
:100F400008E0D8212A48FFF74FF901202749086017
:100F50000020D9E7691E002303EBC1012268501865
:100F600001680846D0E770B504460D4616461CB128
:100F700000201E49086007E0F2211D48FFF734F900
:100F800001201A49086070BD6068B0F1113F03D1BB
:100F900000201649086007E0F3211548FFF724F9FF
:100FA000012012490860EEE7012D04D0022D06D180
:100FB000E068012803D100200C49086007E0F42113
:100FC0000B48FFF711F9012008490860DBE7691EAB
:100FD000002303EBC10122685018314600F002F8EB
:100FE00000BFD0E7024611607047000004000020F7
:100FF0001829000010B504461CB10020CD49086036
:1010000007E05B21CC48FFF7EFF80120C9490860F1
:1010100010BD6068B0F1113F03D10020C5490860E0
:1010200007E05C21C448FFF7DFF80120C1490860F0
:10103000EEE7A068012803D10020BE49086007E060
:101040005D21BD48FFF7D0F80120BA490860DFE70D
:10105000216801F58E704FF0004100F067F900BF84
:10106000D6E710B504461CB10020B249086007E07D
:101070007621B148FFF7B8F80120AE49086010BDED
:101080006068B0F1113F03D10020AA49086007E071
:101090007721A948FFF7A8F80120A6490860EEE7E4
:1010A000A068012803D10020A249086007E0782148
:1010B000A148FFF799F801209E490860DFE7216801
:1010C00001F58E70002100F031F900BFD7E770B54F
:1010D00004460D461CB100209649086007E09421A3
:1010E0009548FFF781F801209249086070BD60685B
:1010F000B0F1113F03D100208E49086007E095212F
:101100008D48FFF771F801208A490860EEE7A06872
:10111000012803D100208749086007E0962186480E
:10112000FFF762F8012083490860DFE7216801F5D5
:10113000947000F0F8F8064646EA0501226802F5C8
:10114000947000F0F3F800BFD0E770B504460D4688
:101150001CB100207749086007E0B8217648FFF706
:1011600043F801207349086070BD6068B0F1113F19
:1011700003D100206F49086007E0B9216E48FFF7EE
:1011800033F801206B490860EEE7A068012803D11D
:1011900000206849086007E0BA216748FFF724F893
:1011A000012064490860DFE7216801F5947000F0D0
:1011B000BAF8064626EA0501226802F5947000F0A6
:1011C000B5F800BFD0E770B504460D461CB100204D
:1011D0005849086007E0DB215748FFF705F8012070
:1011E0005449086070BD6068B0F1113F03D1002020
:1011F0005049086007E0DC214F48FEF7F5FF012069
:101200004C490860EEE7A068012803D10020494955
:10121000086007E0DD214848FEF7E6FF0120454968
:101220000860DFE7216801F5907000F07CF8064661
:1012300006EA0501226802F5907000F077F800BF19
:10124000D0E710B504461CB100203A49086008E018
:10125000FE213948FEF7C8FF01203649086000200A
:1012600010BD6068B0F1113F03D100203149086022
:1012700008E0FF213048FEF7B7FF01202D49086044
:101280000020EDE7A068012803D10020294908606B
:1012900009E04FF480712848FEF7A6FF0120254998
:1012A00008600020DCE7216801F5947000F03BF84D
:1012B000D6E710B504461CB100201E49086009E0BD
:1012C00040F21B111C48FEF78FFF012019490860EE
:1012D000002010BD6068B0F1113F03D10020154916
:1012E000086009E04FF48E711348FEF77DFF01207E
:1012F000104908600020ECE7A068012803D1002015
:101300000C49086009E040F21D110B48FEF76CFF24
:101310000120084908600020DBE7216801F5907092
:1013200000F001F8D5E701460868704702461160F1
:1013300070470000040000206429000002460020DD
:1013400000210AE0174B03EB01131B88934203D1E2
:10135000144B03EB011002E0491C0329F2DB00BF30
:10136000704770B505460E461DB100200E49086055
:1013700008E08B210D48FEF737FF01200A4908607D
:10138000002070BD3046FFF7D9FF04461CB900208D
:1013900068600220F5E7214628466268FFF70AFDEB
:1013A000EFE700002400002004000020B429000022
:1013B00070B50446A26902F17000216B00F02DFDAA
:1013C000A16901F1600000F025FD85B245F480754A
:1013D000606A08B145F06005A16901F16000294625
:1013E00000F01BFD002060642064A06470BD10B597
:1013F00004461CB10020FE49086008E040F2B31129
:10140000FC48FEF7F1FE0120F949086010BDE069D3
:10141000B0F1113F03D10020F549086008E04FF416
:10142000DA71F448FEF7E0FE0120F1490860EDE7CB
:101430002046FFF7BDFF00202062206B6063A1699A
:1014400001F140000A2100F0E8FC00BFDEE770B5C2
:1014500004460D46164640F21741E648FEF7C4FE24
:101460000120E349086070BD2DE9F84304460D46AC
:1014700090461CB10020DE49086009E0A921DD4842
:10148000FEF7B2FE0120DA4908600020BDE8F883CB
:10149000206AB0F1223F01D10520F7E70020206249
:1014A000A064D548E0640020A063E0632064606429
:1014B000C4F81880A8686062E868A062287C84F894
:1014C0002C00687C18B9082084F82D0002E0687CA4
:1014D00084F82D00A87C84F82E0068696065287E59
:1014E00084F858004FF01130E06194F82C1001207E
:1014F0008840401E2063206B606300202060606095
:10150000A060E06020616061687E012862D1A1690D
:1015100001F1600000F07EFC064646F06606A16917
:1015200001F16000314600F078FC9F208DF800004A
:1015300000208DF801008DF802009DF80010A269CE
:1015400002F1680000F069FC9DF80110A26902F147
:10155000680000F062FC9DF80210A26902F16800C8
:1015600000F05BFCA16901F1600000F053FC06464D
:1015700026F48076A16901F16000314600F04DFC4F
:10158000A16901F1600000F045FC064646F4807652
:10159000A16901F16000314600F03FFCA16901F151
:1015A000640000F037FC074607F0010020B9A1698C
:1015B00001F16C0000F02EFCA16901F1640000F063
:1015C00029FC074607F0010020B9A16901F16C0070
:1015D00000F020FC2046FFF70AFF002056E770B518
:1015E00004461CB100208249086009E040F2351130
:1015F0008048FEF7F9FD01207D490860002070BD9C
:10160000E069B0F1113F03D100207949086009E099
:101610004FF49B717748FEF7E7FD0120744908609D
:101620000020ECE7206AB0F1223F01D10520E6E777
:10163000A16901F1280000F0EDFB42F22B0140EA24
:101640000106A16901F12800314600F0E6FB4FF0E8
:1016500022302062A16901F1600000F0DBFB054649
:1016600045F06205A16901F16000294600F0D5FB53
:10167000A16901F11C004FF0004100F0CEFB0020F9
:10168000BDE770B504461CB100205949086009E067
:1016900040F283115748FEF7A7FD01205449086026
:1016A000002070BDE069B0F1113F03D10020504926
:1016B000086009E04FF4C2714E48FEF795FD012025
:1016C0004B4908600020ECE7A06C08B11520E8E762
:1016D000A16901F11C00002100F09FFBA16901F14B
:1016E000600000F097FB054625F00201A26902F1B7
:1016F000600000F092FB0020206200BFD1E72DE9DE
:10170000FC5F04468A4693461F464FF000091CB111
:101710000020374908600AE040F226213548FEF7EC
:1017200063FD0120324908600020BDE8FC9FBAF14A
:10173000000F03D000202E49086009E040F2272165
:101740002C48FEF751FD0120294908600020ECE7F4
:101750001FB100202649086009E04FF40A712548AE
:10176000FEF742FD0120224908600020DDE7E06924
:10177000B0F1113F03D100201D49086009E040F29B
:1017800029211C48FEF730FD01201949086000207E
:10179000CBE7206AB0F1223F01D00620C5E7A06C5C
:1017A00008B11520C1E7A16901F11C0000F032FB6E
:1017B000B0F1004F01D1012000E000200190A169AB
:1017C00001F11C00002100F028FBA16901F160007B
:1017D00000F020FB064606F00400D0B106F0010040
:1017E000B8B9D4E90C10884213D10198012805E05A
:1017F00004000020082A00004F14000006D1A1694F
:1018000001F11C004FF0004100F007FB40F2834063
:101810008BE70120A064C4F838A0C4F83CB027646A
:10182000676494F82D50A16901F1640000F0F2FAA8
:10183000804624E0082D03D1A06B90F800900AE0C8
:10184000102D03D1A06BB0F8009004E0202D02D140
:10185000A06BD0F80090A16901F16800494600F042
:10186000DCFAA06B00EBE500A063606CA0EBE50088
:101870006064A16901F1640000F0CCFA804608F0D0
:10188000080010B9606C0028D4D1A26902F1700080
:10189000616B00F0C2FAA16901F1600000F0BAFAD0
:1018A000064626F48076A16901F16000314600F019
:1018B000B4FA0198012815D1A16901F1280000F0BE
:1018C000A9FA40F004000090A16901F128000099F4
:1018D00000F0A3FAA16901F11C004FF0004100F0F3
:1018E0009CFABEE0A5E000BFA16901F1200000F074
:1018F00091FA804608F004000028F5D0A16901F1B2
:10190000200000F087FA40F004000090A16901F186
:101910002000009900F081FAA16901F1600000F057
:1019200079FA064646F48071A26902F1600000F07F
:1019300074FAA16901F1640000F06CFA804630E0AD
:10194000A16901F16C0000F065FA8146082D07D10C
:10195000E06BD0B1E26B501CE06382F8009014E0C1
:10196000102D08D1E06B80B1E16BA1F80090E06B25
:10197000801CE06309E0202D07D1E06B28B1E06B0B
:10198000C0F80090E06B001DE063206900EBE5000B
:101990002061A7EBE507A16901F1640000F03AFAC4
:1019A000804608F001000028CAD0606CF0B3A1693D
:1019B00001F1640000F02EFA804624E0082D03D1E6
:1019C000A06B90F800900AE0102D03D1A06BB0F846
:1019D000009004E0202D02D1A06BD0F80090A16906
:1019E00001F16800494600F018FAA06B00EBE50031
:1019F000A063606CA0EBE5006064A16901F1640084
:101A000000F008FA804608F0080010B9606C002861
:101A1000D4D1A16901F1600000F0FCF9064626F47A
:101A20008076A16901F16000314600E001E000F03C
:101A3000F4F9002F7FF457AFA16901F1600000F0C5
:101A4000E9F9064646F48071A26902F1600000F0EF
:101A5000E4F9A26902F17000216B00F0DEF90020C8
:101A6000A064002061E62DE9F04104460E461CB159
:101A70000020EB4908600AE04FF45F71E948FEF787
:101A8000B3FB0120E64908600020BDE8F081E06971
:101A9000B0F1113F03D10020E149086009E040F2B4
:101AA0007D31E048FEF7A0FB0120DD490860002001
:101AB000EBE7A06C08B11520E7E7002794F82C00AD
:101AC000451E06E026FA05F000F0010000B17F1C7B
:101AD0006D1E002DF6DA012F02DD40F28440D4E7BE
:101AE000F04360630020D0E710B504461CB100202D
:101AF000CB49086009E040F2BB31CA48FEF774FBED
:101B00000120C7490860002010BDE069B0F1113F15
:101B100003D10020C249086009E04FF46F71C14849
:101B2000FEF762FB0120BE4908600020ECE7606B15
:101B3000C043E9E770B504460E4615461CB10020C7
:101B4000B749086008E040F2F931B648FEF74CFBAF
:101B50000120B349086070BD1DB10020B049086084
:101B600008E040F2FA31AF48FEF73EFB0120AC49F5
:101B70000860F0E7E069B0F1113F03D10020A84907
:101B8000086008E040F2FB31A648FEF72DFB01207B
:101B9000A3490860DFE7E564266500BFDBE72DE9C0
:101BA000F84F81464C460027B9F1000F03D00020C2
:101BB0009B49086009E040F256419A48FEF714FB41
:101BC000012097490860BDE8F88F6069401C60619A
:101BD000A16901F1200000F01DF90546A16901F19C
:101BE000200000F017F928430090A16901F12000BE
:101BF000009900F012F905F00100A8B1D4E9100134
:101C0000A0EB010A2068401C20602046FFF7D0FBB3
:101C1000A16901F1640000F0FDF8524640F27F41F5
:101C2000D4E913309847CEE794F82D6005F004000E
:101C300018B905F0400000287AD0A16901F16000D0
:101C400000F0E8F883464BF48071A26902F160006D
:101C500000F0E3F8A16901F1640000F0DBF88046D0
:101C60002BE0A16901F16C0000F0D4F80746082EC2
:101C700006D1E06BB8B1E26B501CE063177012E064
:101C8000102E07D1E06B70B1E16B0F80E06B801C10
:101C9000E06308E0202E06D1E06B20B1E06B076026
:101CA000E06B001DE063206900EBE6002061A169A4
:101CB00001F1640000F0AEF8804608F00100002851
:101CC000CFD0606CA8B3A16901F1640000F0A2F864
:101CD000804621E0082E02D1A06B077808E0102E84
:101CE00002D1A06B078803E0202E01D1A06B07680A
:101CF000A16901F16800394600F08FF8A06B00EB94
:101D0000E600A063606CA0EBE6006064A16901F1ED
:101D1000640000F07FF8804608F0080010B9606C9D
:101D20000028D7D1A16901F16000594600F075F88B
:101D30001CE0FFE7A26902F17000216B00F06DF872
:101D4000A16901F1280000F065F820F0040000907E
:101D5000A16901F12800009900F05FF80020A0645B
:101D60004FF49061D4E91330226C984705F080005D
:101D700028B100224FF49161D4E91330984705F45B
:101D8000807028B1002240F28941D4E9133098478D
:101D900005F0020060B1D4E91001A0EB010AE0688F
:101DA000401CE060524640F28741D4E91330984726
:101DB00005F0200060B1D4E91001A0EB010AA06891
:101DC000401CA060524640F28241D4E9133098474B
:101DD00005F0080060B1D4E91001A0EB010A6068C9
:101DE000401C6060524640F28141D4E9133098476C
:101DF00005F4005060B1D4E91001A0EB010A60685D
:101E0000401C6060524640F28A41D4E91330984742
:101E100000BFD8E601460868704702461160704767
:101E200004000020082A000010B50246002000210E
:101E30000CE0C1EBC103164C34F82330934204D1BB
:101E4000C1EBC10304EB830002E0491C0429F0D379
:101E500000BF10BD70B505460E461DB100200D49EE
:101E6000086008E086210C48FEF7BEF90120094908
:101E70000860002070BD3046FFF7D6FF04460CB95D
:101E80000220F7E7214628466268FFF7EDFAF1E7FE
:101E90005400002004000020542A000070B50446BD
:101EA0000D4640F2BB11EB48FEF79EF90120EA49CE
:101EB000086070BD70B504460E4615461CB1002082
:101EC000E549086008E08B21E248FEF78DF9012022
:101ED000E1490860002070BD002060620021E162DD
:101EE000A1622063A16361634FF011302062E5615C
:101EF000DA48E0636064E16901F10C00002100F060
:101F0000A5F9204600F041FB0020E4E72DE9F0416F
:101F100004460025E16901F1080000F094F9C6B219
:101F2000E16901F1080000F08EF9C6B2E16901F142
:101F30000C00002100F08AF937460CE0626A515D1E
:101F4000E269101D00F082F96D1CE16901F10800E1
:101F500000F079F9C6B206F0080010B9E06AA842AC
:101F6000ECD8606A28446062E06A411BE162A068C4
:101F70002844A06007F01007E16901F10C00394620
:101F800000F064F92846BDE8F0812DE9F0410446EF
:101F90000E4615461CB10020AF49086009E0DA2161
:101FA000AC48FEF721F90120AB4908600020BDE8EC
:101FB000F0811EB10020A849086008E0DB21A54897
:101FC000FEF712F90120A44908600020EFE7206A1B
:101FD000B0F1113F03D100209F49086008E0DC21E7
:101FE0009C48FEF701F901209B4908600020DEE7CC
:101FF000002D03DB00209849086008E0DD219548AA
:10200000FEF7F2F80120944908600020CFE7E1696B
:1020100001F1080000F017F90746E16901F10C0031
:10202000002100F013F9A562E562666207F010076F
:10203000E16901F10C00394600F008F92046FFF78C
:1020400065FF80464046B2E72DE9F0410446002591
:10205000E16901F1080000F0F6F8C7B2E16901F1A9
:102060000C00002100F0F2F824E0E16901F1080021
:1020700000F0E9F8C6B206F00100D0B1E06900F066
:10208000E2F8C2B228466D1C236B1A5406F02000F9
:1020900010B12069401C206106F0800010B1606919
:1020A000401C606106F0400020B1A069401CA061A6
:1020B00000E002E0A06BA842D7D800BF206B284404
:1020C0002063A06B411BA163E0682844E06007F037
:1020D0001007E16901F10C00394600F0B7F8284615
:1020E000BDE8F0812DE9F04104460E4615461CB1CD
:1020F0000020594908600AE040F22D115548FEF7CA
:1021000073F80120544908600020BDE8F0811EB139
:1021100000205149086009E04FF497714D48FEF7DF
:1021200063F801204C4908600020EEE7206AB0F116
:10213000113F03D100204849086009E040F22F1107
:102140004448FEF751F80120434908600020DCE7CD
:10215000002D03DB00204049086009E04FF498712E
:102160003C48FEF741F801203B4908600020CCE7DD
:10217000E16901F1080000F066F80746E16901F144
:102180000C00002100F062F86563A563266307F088
:102190001007E16901F10C00394600F057F82046BC
:1021A000FFF752FF80464046AFE770B504461CB1CA
:1021B00000202949086008E04FF4B5712548FEF772
:1021C00013F801202449086070BD206AB0F1113F66
:1021D00003D100202049086008E040F26B111D483F
:1021E000FEF702F801201C490860EDE7E16901F102
:1021F000080000F028F8054605F0100545F0030139
:10220000E26902F10C0000F021F800BFDCE770B5D4
:1022100004461CB100201049086009E040F2951105
:102220000C48FDF7E1FF01200B490860002070BD5C
:10223000E16901F1080000F006F8054600BF012041
:1022400020EA9500F3E701460868704702461160EE
:1022500070470000A42A0000040000209D1E00001A
:1022600070B504460D4616461CB100207E49086034
:1022700007E064217D48FDF7B7FF01207A49086037
:1022800070BD1DB100207849086007E065217748DE
:10229000FDF7AAFF012074490860F1E7206AB0F158
:1022A000113F03D100207049086007E066216F48A4
:1022B000FDF79AFF01206C490860E1E7E5632664B9
:1022C00000BFDDE770B504460D4616461CB1002080
:1022D0006549086007E085216448FDF785FF012016
:1022E0006149086070BD1DB100205F49086007E0CA
:1022F00086215E48FDF778FF01205B490860F1E721
:10230000206AB0F1113F03D100205749086007E06F
:1023100087215648FDF768FF012053490860E1E72F
:102320006564A66400BFDDE770B50446E06A38B9AD
:10233000A56A0021A1622946D4E91120904702E054
:102340002046FFF7E3FD2068401C206070BD70B59B
:102350000446A06B10B12046FFF776FEA06B28B9AB
:10236000D4E90D53E91AD4E90F2090476068401C66
:10237000606070BD70B504461CB100203A49086029
:1023800007E0A2213948FDF72FFF012036490860F8
:1023900070BDE16901F10800056800BF05F00300A8
:1023A00010B12046FFF7D3FF05F0040020B1A06A6A
:1023B00010B12046FFF7B8FF00BFE9E710B50446AB
:1023C0001CB100202849086008E040F2211127488C
:1023D000FDF70AFF01202449086010BD206AB0F112
:1023E000113F03D100202049086008E04FF49171AB
:1023F0001E48FDF7F9FE01201B490860EDE7E16981
:1024000001F10C00002100F02BF800BFE5E710B54A
:1024100004461CB100201449086008E040F23F1156
:102420001248FDF7E1FE01200F49086010BD206A47
:10243000B0F1113F03D100200B49086008E04FF4D0
:10244000A0710A48FDF7D0FE012007490860EDE7BA
:10245000E16901F10C00102100F002F800BFE5E78E
:10246000024611607047000004000020F82A0000B6
:1024700000BF00BF826802F00802082AF9D0021DDE
:102480001346196000BF7047014600BF00BF88684F
:1024900000F001000028F9D000BF0868C0B2704702
:1024A0000246002000210AE0164B03EB01131B88B3
:1024B000934203D1134B03EB011002E0491C0029A6
:1024C000F2D000BF704770B505460E461DB1002022
:1024D0000D49086008E081210C48FDF785FE0120C8
:1024E00009490860002070BD3046FFF7D9FF044657
:1024F0000CB90220F7E7214628466268FFF7DAFCAC
:10250000F1E70000C400002004000020502B000070
:1025100070B504460D461CB100203049086007E044
:102520005C212F48FDF760FE01202C49086070BD3A
:102530001DB100202949086007E05D212848FDF70A
:1025400053FE012025490860F1E7206AB0F1113FF0
:1025500003D100202149086007E05E212048FDF7F3
:1025600043FE01201D490860E1E72068286060689B
:102570006860A068A860E068E86020692861A069D8
:10258000A8616069686100BFD1E710B504461CB15D
:1025900000201249086007E07F211148FDF724FE62
:1025A00001200E49086010BD206AB0F1113F03D12F
:1025B00000200A49086007E080210948FDF714FE61
:1025C000012006490860EEE7002020606060A060FE
:1025D000E0602061A061606100BFE4E704000020CA
:1025E000AC2B00000FB41CB5074B06AA7B44694610
:1025F0000090059800F02DF90020694600F03CF9A4
:102600001CBC5DF814FB0000890200002DE9F041BC
:102610000E460446002020622046E168884730B319
:10262000252805D0D4E901219047206A401CF2E713
:10263000E168204600278847050018D0A5F1410031
:10264000192802D820354FF4006732462946204623
:102650002760FDF76FFD40B1012804D0F61D26F07C
:1026600007060836D8E7361DD6E72846DAE7206A97
:10267000BDE8F0812DE9F041064600241068752977
:10268000314616A510D0AFF30080002802DA404290
:1026900013A507E031688A0701D512A502E04907B2
:1026A00004D511A5012401E0AFF3008000210A2226
:1026B00006F1240709E0B0FBF2FCB0FBF2F302FBE9
:1026C0001C00303078541846491C0028F3D12346AA
:1026D0002A463046BDE8F04100F05CB8000000003A
:1026E0002D0000002B0000002000000010B5431C4E
:1026F00002E010F8011B71B18107FAD14FF00132ED
:1027000002C88C1A8C4314EAC211F9D0C01A0A0606
:1027100003D0C01E10BDC01A10BD0A0401D0801E17
:1027200010BD0902FCD0401E10BD10B5203AC0F00B
:102730000B80B1E81850203AA0E81850B1E81850C2
:10274000A0E81850BFF4F5AF5FEA027C24BFB1E8FF
:102750001850A0E8185044BF18C918C0BDE8104070
:102760005FEA827C24BF51F8043B40F8043B08BF79
:102770007047D20728BF31F8023B48BF11F8012B40
:1027800028BF20F8023B48BF00F8012B7047704774
:10279000704770472DE9F0470D469946924604462A
:1027A00000F124080168880604D5E06921F01001D1
:1027B000216000E00120A84201DD471B00E0002766
:1027C000A1697A1902EB0900081AA0612078C006F5
:1027D00002D42046AFF30080002608E0D4E90121AE
:1027E0001AF806009047206A401C761C20624E456D
:1027F000F4DB2078C0060AD52046AFF3008006E05F
:10280000D4E9012130209047206A401C2062381E04
:10281000A7F10107F4DC07E0D4E9012118F805006D
:102820009047206A401C2062281EA5F10105F3DCB8
:102830002046AFF300802078000602D50220BDE8D4
:10284000F0870120FBE7000001694A1C026108785B
:10285000704700B58FB0CDE90131002105910549E0
:102860007944CDE9031011466846FFF7CFFE0FB05B
:1028700000BD0000E5FFFFFF0A6802F8010B0A60D7
:102880007047754600F02CF8AE4605006946534681
:1028900020F00700854618B020B5FDF77DFCBDE8A7
:1028A00020404FF000064FF000074FF000084FF0B7
:1028B000000B21F00701AC46ACE8C009ACE8C00948
:1028C000ACE8C009ACE8C0098D46704710B50446B5
:1028D000AFF300802046BDE81040FDF73DBC00008E
:1028E00000487047C005002001491820ABBEFEE734
:1028F000260002007047000067452301EFCDAB8939
:10290000EFBEADDEEDDAEBFEA53CF0A52143658719
:10291000A90BDCFE080402012E2E5C73646B5F774A
:102920006F726B73706163655C7374616E64616C0C
:102930006F6E655F6273705F305C436F7274657851
:102940005F4D335F305C6C69627372635C677069A2
:102950006F5F76345F345C7372635C786770696F45
:102960002E6300002E2E5C73646B5F776F726B7347
:10297000706163655C7374616E64616C6F6E655FDA
:102980006273705F305C436F727465785F4D335F64
:10299000305C6C69627372635C6770696F5F763418
:1029A0005F345C7372635C786770696F5F696E74C3
:1029B000722E63002E2E5C73646B5F776F726B7385
:1029C000706163655C7374616E64616C6F6E655F8A
:1029D0006273705F305C436F727465785F4D335F14
:1029E000305C6C69627372635C6770696F5F7634C8
:1029F0005F345C7372635C786770696F5F73696E74
:102A000069742E63000000002E2E5C73646B5F7788
:102A10006F726B73706163655C7374616E64616C1B
:102A20006F6E655F6273705F305C436F7274657860
:102A30005F4D335F305C6C69627372635C737069A5
:102A40005F76345F345C7372635C787370692E6395
:102A5000000000002E2E5C73646B5F776F726B73E7
:102A6000706163655C7374616E64616C6F6E655FE9
:102A70006273705F305C436F727465785F4D335F73
:102A8000305C6C69627372635C7370695F76345F2B
:102A9000345C7372635C787370695F73696E6974B8
:102AA0002E6300002E2E5C73646B5F776F726B7306
:102AB000706163655C7374616E64616C6F6E655F99
:102AC0006273705F305C436F727465785F4D335F23
:102AD000305C6C69627372635C756172746C69748A
:102AE000655F76335F325C7372635C7875617274B4
:102AF0006C6974652E6300002E2E5C73646B5F77C7
:102B00006F726B73706163655C7374616E64616C2A
:102B10006F6E655F6273705F305C436F727465786F
:102B20005F4D335F305C6C69627372635C756172B8
:102B3000746C6974655F76335F325C7372635C7862
:102B4000756172746C6974655F696E74722E63006E
:102B50002E2E5C73646B5F776F726B73706163654D
:102B60005C7374616E64616C6F6E655F6273705FDD
:102B7000305C436F727465785F4D335F305C6C69B5
:102B8000627372635C756172746C6974655F7633CD
:102B90005F325C7372635C78756172746C697465C2
:102BA0005F73696E69742E63000000002E2E5C73E3
:102BB000646B5F776F726B73706163655C73746174
:102BC0006E64616C6F6E655F6273705F305C436FE3
:102BD000727465785F4D335F305C6C6962737263E9
:102BE0005C756172746C6974655F76335F325C73B7
:102BF00072635C78756172746C6974655F7374611B
:102C000074732E6300000000282C000000000020D8
:102C1000D4000000FC000000FC2C0000D4000020C8
:102C20004C1500001801000040787D0100000000F4
:102C30000100000000000000000000000000000093
:102C40000000000000000000000000000000000084
:102C50000000114001000000010000000100000020
:102C6000000012400100000001000000020000000E
:102C70000000014000000000000000000000000013
:102C800000001340010000000000000001080200E5
:102C900000000000000000000100000000000240F1
:102CA0000100000000000000010802000000000018
:102CB00000000000020000000000034001000000CE
:102CC00000000000010800000000000000000000FB
:102CD00003000000000000400100000000000000B0
:102CE00001080201000000000100000000000000D7
:0C2CF0000000104000C2010000000800BD
:040000050000017D79
:00000001FF
